:10000000803600203930000077A400002530000041
:1000100025300000253000002530000000000000E1
:10002000000000000000000000000000A1310000FE
:1000300025300000000000004131000025300000A4
:100040005D3300005D3300005D3300005D33000070
:100050005D3300005D3300005D3300005D33000060
:100060005D3300005D3300005D3300005D33000050
:100070005D3300005D3300005D3300005D33000040
:100080005D3300005D3300005D3300005D33000030
:100090005D3300005D3300005D3300005D33000020
:1000A0005D3300005D3300005D3300005D33000010
:1000B0005D3300005D3300005D3300005D33000000
:1000C0005D3300005D3300005D3300005D330000F0
:1000D0005D3300005D3300005D3300005D330000E0
:1000E0005D3300005D3300005D3300005D330000D0
:1000F0005D3300005D3300005D3300005D330000C0
:1001000053B94AB9002908BF00281CBF4FF0FF317E
:100110004FF0FF3000F00CB8ADF1080C6DE904CEE3
:1001200000F01AF8DDF804E0DDE9022304B07047BE
:10013000704700BF10F8012B11F8013B012A28BFBE
:100140009A42F7D0D01A7047034613F8012B002AC1
:10015000FBD1181A013870472DE9F04786468C46C6
:100160000846089E154674461946002B40F0C2808A
:100170008542B2FA82F245D94AB1C2F1200300FAAF
:1001800002FC2EFA03F3954043EA0C0C94404FEA2C
:10019000154EA8B2BCFBFEF8230C0EFB18CC08FBD6
:1001A00000F943EA0C43994528D9EB1808F1FF37C9
:1001B00004D2994502D9A8F102072B44A3EB090305
:1001C000A4B2B3FBFEFC0EFB1C330CFB00F044EAB4
:1001D0000344A04214D92C190CF1FF3304D2A042DD
:1001E00002D9ACF102032C44241A43EA07401EB1A1
:1001F000D440002334607360BDE8F0874746DDE7F4
:100200006346F1E792BB431B01214FEA154EAFB2A3
:10021000B3FBFEFC200C0EFB1C330CFB07F840EA82
:100220000343984562D9EB180CF1FF3004D298458E
:1002300002D9ACF102002B44A3EB0803A4B2B3FB38
:10024000FEFC0EFB1C330CFB07F744EA0344A742F9
:100250004ED92C190CF1FF3304D2A74202D9ACF1CC
:1002600002032C44E41B43EA0040C0E7C2F1200330
:1002700020FA03F1954090402EFA03F303434FEA2E
:10028000154EAFB2B1FBFEFC0EFB1C10190C0CFBA3
:1002900007F841EA0041884504FA02F422D96918B6
:1002A0000CF1FF3004D2884502D9ACF10200294498
:1002B000A1EB08019BB2B1FBFEFC0EFB1C110CFB79
:1002C00007F743EA01439F420ED9EB180CF1FF31C7
:1002D00004D29F4202D9ACF102012B44DB1B41EA5C
:1002E000004192E76046E3E76146F7E76046A3E72F
:1002F0006346B7E7834206D916B9002108467BE773
:10030000C6E900E0F9E7B3FA83F78FB9834201D376
:10031000724508D8BEEB020460EB030301209C4643
:100320001EB9002168E73846FAE7C6E9004CF8E74D
:10033000C7F1200CBB4022FA0CF41C432EFA0CF13E
:1003400020FA0CF3B84001434FEA14490EFA07F5BE
:10035000B3FBF9F81FFA84FE09FB18300B0C08FBFD
:100360000EFA43EA00439A4502FA07F240D9E3182D
:1003700008F1FF3004D29A4502D9A8F102002344C3
:10038000A3EB0A0389B2B3FBF9F809FB183308FBA6
:100390000EFE41EA03418E452CD9611808F1FF3366
:1003A00004D28E4502D9A8F10203214443EA004059
:1003B000A0FB0298A1EB0E014145CE46434602D375
:1003C00006D14D4504D2B9EB020E68EB04030138A7
:1003D000002EA6D0B5EB0E0261EB030101FA0CFC76
:1003E00022FA07F34CEA0303F940C6E9003198E723
:1003F0004046C5E74346D9E7014B1870704700BF38
:10040000F4200020014807F029BB00BFBC010020F8
:1004100013B5C3889A1E0446092A47D8DFE802F0BC
:1004200026363E46464646464605254B1B78052B56
:1004300001D101F00BFF234AA168137899B143F071
:10044000010313701F4920480022002307F052F9CE
:1004500020B11E4A1E48012109F0E1FE194B00227D
:100460005A709A7029E003F0FE03EAE7144B1B78F8
:10047000052B01D101F0EAFE124AA168137811B1EF
:1004800043F00203DDE703F0FD03DAE78368002BA6
:10049000D8D00C4A53780A335370D3E78368002BC3
:1004A000D0D0084A93780A339370CBE78268084823
:1004B00000920321074A09F0C5FE02B010BD00BF3B
:1004C000F4200020F02000208401002008B9000062
:1004D000C8B50000E4B800002DE9F84300AF394C7E
:1004E00020460AF0E4FA0346B0B921686C4688B0A9
:1004F0006A463548C2E905014FF4007191833349DA
:1005000042F8101F32484FF4E25101F005F8A546B9
:100510000020BD46BDE8F8832E4806F0DDFE054606
:1005200028B92D4A2A48012109F079FEF0E722690D
:10053000A168136843F4005313600B68274A0D2128
:1005400020469847031E05DA254A2148012109F073
:100550006FFEDDE7234B24493422284603F028FAB6
:10056000284609F0DBFF214801F092FED0B9204E69
:10057000DFF88090DFF880804FF0FF324FF0FF33DC
:100580003146484607F00EF900230422314628463A
:1005900003F024FA034638B1184A0D48012109F046
:1005A00047FEE9E7164ABDE74FF0FF324FF0FF3351
:1005B000404607F087FAA36802485B694FF4005190
:1005C0009847D9E744B3000026B9000003000001B2
:1005D000C8B5000041B9000047B9000001000200A1
:1005E00061B9000048B60000B5B90000F903000089
:1005F000B00B002084010020BC010020A1B9000044
:100600008CB900002DE9F04F91B08407009302F0FF
:1006100004030293C2F3C20303F10103DDF868800F
:10062000039205460E46059340F0BA81041D30B191
:10063000072909D86FF01B0011B0BDE8F08F01F059
:1006400007063444C6F10806009B4FF00009591E06
:100650004FF0040A4FF0FF330193CDF810904F464E
:10066000CB4653460DB1009A22600598002800F34E
:10067000E8809848009A824203D397488242C0F0AB
:10068000E080039AA4EB050E92074FEA9E0000F16A
:1006900003810F2F00F2B180002D00F0058107F1DA
:1006A00040020DEB020C019A0CF8200C0CF8102CF7
:1006B000049801300490E7E07A285DD84B280ED8E2
:1006C000472859D829282DD8252852D054D8202851
:1006D0007AD02338D0F1000B4BEB000B74E04C3890
:1006E0002E2849D8DFE800F0704848484848484874
:1006F000484848484B484848484848484859484B63
:100700004B595959704B6D487048184B18484882DE
:100710007F4B48484B487F0000204FF0000B4FF0C4
:10072000040A38E02A38C0B2012202FA00F010EAC6
:100730000E0F49D110F0625C2FD110EA020B43D0AA
:100740006046013C5444B4FBFAF40AFB04F4002D67
:1007500061D0A3EB050CA444B4453FF66BAF002871
:1007600068D1042B47D158F8043B23600434042398
:100770002AE0019A013A01924FF0000B24E011F8AF
:10078000010C6C2834D111F8023C00206C2B8346FC
:10079000C5D14FF0080A5346D3E708F1070828F0FF
:1007A00007080734F8E802AB24F0070435B10698CF
:1007B0002044B0423FF63EAFC4E900AB08344FF0EE
:1007C000000B4FF0080A534611F8010F002878D0AB
:1007D000BBF1000F7FF470AF2528F5D1019B0133E9
:1007E00001934FF0010B4FF0040AECE7584694E7F1
:1007F00000208346A5E7082B02D06FF015001BE709
:1008000008F1070828F00708F8E80223C4E90023E4
:1008100008340823D8E768B9042B02D108F104088A
:10082000A4E7082BE9D108F1070828F0070808F128
:100830000808EDE7059A013A059258F8042B009252
:1008400010E7039A900720D5A4EB050E4FEA9E000F
:100850004FF0010CBEF5007FCFD20F2FCDD8F5B1F0
:1008600007F140020DEB020EC0B2019A0EF8200C07
:100870000EF8102CBCF1000F3FF41AAF60F07F00AF
:100880000EF8200C09F101090137C5F10802043402
:1008900006924FF6DA7E97E74FF0000CDAE7BCF1EC
:1008A000000F01D00136EFE7029802360028EBD1A5
:1008B0000098CDE90631FFF747FCDDE90631064433
:1008C000E2E7631BB3F5806F97D23DB9A6F1080448
:1008D000E018B1E67CB2000078C80000029A2860F7
:1008E0009B082B709DF81030C2B1EB7085F8029018
:1008F000B9F1000F05D008A80022C5F1010C9742FC
:100900000ED1C5F101030DF120084FF0000A01934B
:100910000DF1300B574512D1601B8DE66B70E5E78A
:1009200010F8013B190608D50CEB040EB64503F090
:100930007F033FF67FAE04F8013B0132DFE7B9F1F8
:10094000000F03D098F90020002A17DB029BD3B1D7
:100950001AF80B2004F8012B0022019B18191044EF
:10096000B0423FF667AE98F8000004F8010B00991A
:10097000039220460AF0F6FB039A14440AF1010A96
:1009800008F10108C6E798F8002055F822300093D6
:10099000029B45F822300098FFF7D6FB421CDCE7AB
:1009A0006FF00D0048E600BF2DE9F04F97B000AFA3
:1009B00090F802A0D7F880B03B62CBF3C0030446A6
:1009C000FA62BB61894641B9457800780AEB80003C
:1009D00020444D4517D8A0EB0409E378FB61BAF138
:1009E000000F02D01BF0010F16D1FB6953BBFB6A4D
:1009F0001BB13A6A4946204698474D4628465C371F
:100A0000BD46BDE8F08F461C3046FFF79DFB013028
:100A1000304409F10109DCE7237862687A62FA6AF6
:100A20009900796104EB8301002A40F000814D4672
:100A30000E4601EB0A094FF000084E454CD101EB80
:100A40000A0610E01BF0020FD1D023789A007A61D9
:100A500062687A62FA6A04EB8301002A77D14D4614
:100A600001EB0A0690461BF0050F0CBF0223012381
:100A7000FB62FB6906EB430A0BF00203BB625645BF
:100A8000BCD016F8021B16F8013C54F82390994B81
:100A9000994502D3984B994536D3BB69002B40D07A
:100AA000786A08F049FF00283BD0E9468AB06A46D8
:100AB000924B53617B6AC2E906314FF40073138491
:100AC0008F4B42F8103F8F4800234FF4125100F033
:100AD00023FD023DCD46D2E716F8013BF96254F8FA
:100AE0002300FFF731FBD7F88430F96A01304BB1AE
:100AF000D7F8883098453EBFD7F8843023F81800DF
:100B000008F10108054498E7BB6923B1786A08F049
:100B100013FF0028C9D11BF0010F05D1FB6AED1AA4
:100B2000ADE7BB6A002BAAD04846FFF70DFBD7F80C
:100B3000843053B1D7F8883098453FBFD7F8842028
:100B4000431C22F8183008F10108054497E7BAF170
:100B5000000F72D01BF0040672D0D046002607F1B9
:100B6000480052463B61B9620AF0FCFAB96A3B6937
:100B700001EB0A02BA62FA69F9695200FA60BA6ACC
:100B800002EB41023A610BF00202BA603A69B96ABB
:100B90008A4257D162787A621BF0020F32440CBF4E
:100BA0004FEA580100211BF0010FD2B240F09F80A4
:100BB0001BF0040F14BF40460020BB616270A070A0
:100BC000E1703A6A7969FB6A20469847051EFFF68C
:100BD00015AFBB6923707B6A6370FB69E3704146A4
:100BE0003A6AFB6A84F802A007F148009847B0F11E
:100BF0000008C0F2BB807B693A6AA9EB0A01C91AF6
:100C0000FB68C91AD7E90A0398470028C0F2B080E8
:100C1000A84408EB00054FF0000B07F1380AB34574
:100C200072D300213A6AFB6A08469847E6E65646C0
:100C30004FF0000807F1380093E75646D04697E793
:100C4000B04695E7BA6A12F8021BBA6212F8015C64
:100C5000284A54F82500904202D3274A90421ED3D6
:100C6000BA6932B1786A7B6008F066FE7B6800285A
:100C70008CD1BA6802BB08F1280207F1300C08F1E8
:100C80000100944407F1580252FA80F008F102087A
:100C90000CF8101C5FFA88F800F8105C76E7BA6967
:100CA0003AB1786A7B6008F047FE7B6800287FF4E1
:100CB0006DAF1BF0010F09D006F1280207F13000DB
:100CC000711C161806F8205CCEB25FE71BF0040F0B
:100CD0003FF45CAF08F1280207F1300008F1010190
:100CE00002EB000808F8105C5FFA81F84EE700207C
:100CF00063E700BF7CB2000078C80000EEB90000D6
:100D00000400000190B500001BF80A3087F8373066
:100D100054F82390D7F884302BB3D7F888309B450C
:100D200021D2D7F8843033F81B803A6AFB6A01215C
:100D300007F13700984700281ADB0544B8F1000F87
:100D400006D14846FFF700FA00F101081FFA88F8BB
:100D50003A6AFB6A414648469847002808DB054442
:100D60000BF1010B5BE74FF00008DEE7454645E677
:100D7000054643E6014B1860704700BF00000020A5
:100D800080B505460E461746984607F077FB0346A2
:100D90000AF06AFADFF81890044649F80030424633
:100DA00030463946A84754F8090002F0B3F900BFAD
:100DB000080000002DE9F047058B044628079046FF
:100DC00011D4022905F0070540F0CC80204609F037
:100DD0006CF878B10138218B042811D8DFE800F0D5
:100DE000C2106D85950001290CBF45F0100545F036
:100DF0002005258388F31188BFF36F8FBDE8F08746
:100E000001F0070AAA4500F0A5800027B9463E4632
:100E1000A368002B00F0BC8041F00801218388F317
:100E20001188BFF36F8FA168002900F0BA800D68A8
:100E3000002900F0B680D1F804803346524620469F
:100E4000C047002D76D02B6829461D46F0E701F0FB
:100E500007035A1F012A1BD8002221F00701062B85
:100E6000276889B2C4E9002209D13B4603E0628BBE
:100E7000013262831B68002BF9D141F0020121830A
:100E8000204609F012F800287AD041F0200176E0DF
:100E9000042B0AD121F0070189B22183204609F0F1
:100EA00004F810B141F020012183218B01F0070AE1
:100EB000AA454FD00027B946AAE7236921F00701C8
:100EC00041F00601062DD3F8009021832DD1B9F110
:100ED000000F3FD041F00801218388F31188BFF350
:100EE0006F8F3A492046C84729E021F0070123695E
:100EF00041F0040189B2042DD3F804902183E6D097
:100F000000273E464FF0040A82E721F007012369DB
:100F100041F0050189B2052DD3F808902183D6D080
:100F200000273E464FF0050A72E700273E464FF085
:100F3000060A6DE72B4687E7B9F1000FD1D1EFF331
:100F40001188202383F31288BFF36F8F238B23F044
:100F500008032383258BEA062ED525F0100323836F
:100F600005F007056669218B002EBFF670AF0023E0
:100F70002768C4E9003321F0070141F00101218312
:100F8000218B01F0070AAA454FF000097FF440AF1A
:100F9000002F9CD041F00801218388F31188BFF312
:100FA0006F8F002FC8D03D683946334652462046E1
:100FB00008F0A7FF2F46F4E7AB067FF51BAF25F03F
:100FC0002003238305F0070500E700BF2F9F0000E3
:100FD0002DE9F047DFF85880044607464FF0010935
:100FE00014B93846BDE8F08794FAA4F5B5FA85F54A
:100FF00009FA05F32E0108EB05156FEA030A24EA46
:1010000003042B7B002BEBD058F806301B694BB93F
:101010004644042273682846196807EA0A0709F05B
:101020008FF8DDE7284698470028D9D1F0E700BFC0
:1010300020B6000030B51049104889B000220AF0EF
:101040003EF80F4D0F4900220023CDE9062300246E
:101050000E23CDE90334CDE901440B4B00944FF44A
:101060004072284606F02CFF0849284609F0E7FEA2
:10107000204609B030BD00BF9110000038070020A5
:10108000B002002040210020BD130000A2BA0000E1
:10109000014806F0E3BC00BFCC0100202DE9F04779
:1010A000804621480F4609F02BF80646002833D029
:1010B00000252846BDE8F087237B83B12368DB68E1
:1010C0000BB120469847636883F8069023681B6934
:1010D000D3B9636804221968204609F031F8013653
:1010E00010345445E8D3B8F1000FE2D0002DDFD022
:1010F0002846FFF76DFF0546002FF7D000214FF47B
:10110000A47009F04EFFF1E7204698470028E0D090
:1011100009FA06F31D43E2E7044CDFF814A0054684
:101120004FF00109DDE700BFC40B002020B600002E
:1011300030B60000014B53F82000704774B6000031
:1011400008B5034608462BB1044A136000F07AFC48
:10115000002008BD6FF01500FBE700BF0400002071
:1011600010B5044C237813B9034806F077FC01232B
:10117000237010BDF5200020CC01002010B50446DE
:101180000B4808F0BDFF5CB1BFF35B8F094B53E820
:10119000001F013943E80012002AF8D1BFF35B8F2A
:1011A000054809F098FF0548BDE8104006F056BC18
:1011B000BC0B0020C00B002038070020CC01002011
:1011C0000020064BBFF35B8F014653E8000F43E856
:1011D0000012002AF9D1BFF35B8F7047BC0B0020CF
:1011E00070B5FFF7EDFF084C084E0546B44200D33A
:1011F00070BD63685B792BB123685B6813B12946C6
:10120000204698471034F1E720B6000030B60000C1
:1012100010B5044C0449204608F0C5FC034B1C6083
:1012200010BD00BFC800002060B60000B40B002055
:101230000D4A0E48002310B513700D4A13600D4A75
:101240004FF400411360FFF77BFFFFF7E1FF0A4B0C
:101250000A4918468B4200D310BD1A1A5C68121155
:10126000013222711033F5E7F6200020FDA00000C6
:10127000BC0B0020C00B002020B6000030B60000E0
:10128000014600220148002308F0AEBCC80000203F
:10129000014808F047BD00BFC8000020024B0146CE
:1012A000186808F093BD00BFB40B0020014808F097
:1012B000C8BD00BFC800002070B5294B18780028B1
:1012C0004DD0FFF7E5FF0546002845D1254B264CBC
:1012D0001B68002B19DD09F0F0FE4FF47A72A0FBB9
:1012E000020302FB0131C30BD4E9002043EA41436E
:1012F0009B1A4FEAD13140F2E93261EB000193428F
:1013000071F1000101D3FFF76BFFD4E9003213F54F
:101310007A7342F10002C4E90032BDE87040FFF781
:10132000C5BF63685B7923B1236829461B682046E3
:1013300098471034B442F4D32846FFF7AFFFBFF309
:101340005B8F0A4B53E8001F013943E80012002A63
:10135000F8D1BFF35B8FB9E7054C064EEAE770BDE5
:10136000F5200020BC0B002030070020C00B00201F
:1013700020B6000030B6000070B50D4D297861B977
:101380000120FFF78BFE0B4C0B4EB44206D3FFF748
:1013900093FF0028FBD101232B7070BD63685B793C
:1013A0001BB1236820469B6898471034EDE700BFC7
:1013B000F620002020B6000030B6000000212DE904
:1013C000F0470846FFF76AFE044658B340F26768E4
:1013D0004FF0000909F048FF1B4B1C4A1B581360D3
:1013E00033B11B4B1B68092B02DD1A4806F036FB94
:1013F000194FDFF860A0002544B12046FFF7E8FD53
:10140000044618B94FF0FF384FF0FF39FFF754FF8B
:10141000064628B9B5B942464B46504606F052FB3F
:101420003546E9E74FF0FF384FF0FF39D2E72B6838
:101430009B691BB100221146284698471035BD42D2
:10144000F5D3E8E7054DFAE708000000B80B0020E7
:10145000C00B0020CC01002030B6000020B60000F8
:1014600013B5184808F04CFE174B1B7873B1EFF317
:101470001184202383F31288BFF36F8FFFF71CFFC3
:1014800084F31188BFF36F8F02B010BD0F4B1B6840
:10149000002BF9D050B900220023CDE900230C48DD
:1014A0004FF40042002307F0E7FAEDE70928EBD1FB
:1014B000074809F010FE074802B0BDE8104006F0EA
:1014C000CDBA00BFC00B0020F6200020B80B0020D2
:1014D00038070020CC01002010B5064B1B680446DD
:1014E00098472146A060044808F0FDFBBDE8104085
:1014F000FFF7B6BF04000020C8000020044A054BD7
:101500009B1AB1EBD30F34BF52F831000020704763
:1015100090B5000020B600002DE9F04F8FB004AF69
:10152000C1F34A28B8600D4691467B600C0DB8F1B6
:10153000000F63D0002607F114034FF0040B4FF0A7
:101540000A0AC7F80C80C7E907667E620193CDF8E6
:1015500008B0CDF800A007F11C03F96832464846F0
:10156000FFF722FAB0F5006F03461CD36C468AB031
:10157000D9F8041004AB2648C3E9050140F2FF7115
:10158000D9611A464FF400711984224B42F8103F7A
:10159000214833464FF41251FFF7BEFFA5462C37C2
:1015A000BD46BDE8F08FC0F30A0804F117001844E7
:1015B00020F0070080083B60FFF762FE68F35325C8
:1015C000044690B13B68154AC7E9083600F110019E
:1015D00007F11403F961CDE900A3CDF808B0F9686B
:1015E00007F11C034846FFF7DFF968F353257B68D2
:1015F000B9682A46204608F0C2FDD0E704F117007A
:1016000020F007008008FFF73BFE0446EDE700BF2F
:10161000B7BA000004000001B0B5000053A10000FB
:101620002DE9F04F87B0DDE91279DDE9105A044663
:10163000039193469846BFB1CDF800903B46524681
:1016400010210020CDF81490FEF7DCFFB0F5006FFC
:1016500006460AD3184A194840F2FF73022107B020
:10166000BDE8F04F08F0E4BD3E4605F117003044F8
:1016700020F0070004F007048008FFF701FE0BF0DC
:10168000070BE40044EA8B1444EA462444EA055478
:10169000054640B13FB1CDF800903B465246314639
:1016A0001030FEF7AFFF039943462246284607B0A5
:1016B000BDE8F04F08F063BDF6BA0000B0B5000019
:1016C000406820B1034BC01A40F3CF0070474FF081
:1016D000FF30704790B500000EB403B503AB014670
:1016E00053F8042B0448019301F0BEFF02B05DF8EB
:1016F00004EB03B0704700BF93A20000CA0605D4F4
:101700008B064CBF02490349FFF7E6BF704700BF95
:101710002FBB00002EBB00002DE9F04F89B09B4687
:10172000149B06939DF84CA0159B0593169B179E42
:10173000049304460D469046BAF1000F00F09D80D8
:1017400006F48073079308F0F9FC06F002090246DC
:1017500000283ED091492046FFF7BEFF0746B9F169
:10176000000F08D016F0440F35D18D492A46204687
:10177000FFF7B2FF074406F0010353B1894B8A49D2
:1017800053F82A20894B2046002A08BF1A46FFF743
:10179000A3FF06F48073002B49D006F00803002B4A
:1017A00063D1B8F1000F66D0814942462046FFF769
:1017B00093FF0546069B3D44002B6DD1049B002BF7
:1017C00073D1F30700F1E48031462046FFF796FF1E
:1017D000D8E00746C3E7774B18680028CAD0764B95
:1017E0004FF47A791B68B5FBF3F54FF46163B5FBF1
:1017F000F0F100FB115509FB05F54FF03C0CB1FB76
:10180000F3F203FB1211B5FBF0FEB1FBFCF300FB9E
:101810001E550CFB131109FB05F50091B5FBF0F506
:101820006649CDE901E52046FFF756FFA2E706F03D
:101830000803EBB1624B634953F82A202046FFF7B7
:101840004BFF0546B8F1000F05D0594942462046E6
:10185000FFF742FF0544BBF1000FABD05A495A468F
:101860002046FFF739FF0544A4E74FF0000BE1E7FE
:1018700006F00805E6E745469CE7BBF1010F069B2D
:1018800006D1002B64D1049B002B7BD000250CE0FB
:10189000002BF8D04D485CE04D48069B4D49224650
:1018A00008F019F8049B002B68D0DFF82C81DFF8D2
:1018B0002C91049F3146102F204628BF1027FFF798
:1018C0001DFF4FF0000B5D4545DC059B49461A782E
:1018D0002046FFF701FF4FF0010B1BF0070F03D16C
:1018E00041462046FFF7F8FE5F453BD9059B494638
:1018F00013F80B202046FFF7EFFE0BF1010BBBF1B5
:10190000100FEAD1364920464FF0000BFFF7E4FEF6
:101910005A46059B9A5CA2F120015F2928BF2E221E
:1019200030492046FFF7D8FE0BF1010BBBF1100F39
:101930001DD01BF0070F03D141462046FFF7CCFE18
:101940005F455A46E5D841462046FFF7C5FEEBE71E
:101950001F485546A1E741462046FFF7BDFE0BF163
:10196000010BB0E720492046FFF7B6FEC5E7059B0F
:101970003B440593049BDB1B04939AD1BAF1000FFF
:101980007FF41FAF204609B0BDE8F04F08F074BCEB
:10199000064A05492046FFF79FFE15E736BB0000C3
:1019A0003ABB000084B600005FBB000031BB000002
:1019B00062BB0000CC0B0020C80B002043BB000022
:1019C00098B6000066BB00006CBB0000C9A2000016
:1019D00093A200006936000079BB000071BB0000D3
:1019E0007BBB00007DBB000077BB000073B542F2FB
:1019F0000F738B4228BF0B4605680F4A044605212A
:101A0000684607F0A3FA63680C495B6806460B2238
:101A1000284608F023FC63683246694628465B681E
:101A200008F01CFC636806495B681B22284608F026
:101A300015FC02B070BD00BFB2B900009CBB000035
:101A400080BB0000074A00210123904206D8064AC5
:101A500001B901231360054B1860704740085B0013
:101A60000121F2E740420F00C80B0020CC0B002000
:101A7000F8B5074F0D4604464618B44201D1284632
:101A8000F8BD14F8011BBB6801485B689847F4E790
:101A900064B30000014B036000207047E0B6000013
:101AA000F0B40D4B0D4E5F6A0D4BB34203D36FF094
:101AB0008500F0BC70475C68BC420AD31D6945B123
:101AC00094F802C08488E4B2A44502D12B46F0BC4D
:101AD00018472433E9E700BFF40B0020AC020020D4
:101AE000880200202DE9F047144CDFF85480DFF81D
:101AF000549005460E461746444503D36FF08500C3
:101B0000BDE8F0876268D9F824309A4213D3A369FC
:101B10008BB1A9889078C9B2884205D13A4631463E
:101B20002846BDE8F04718475279012A03D13A46C2
:101B30003146284698472434DEE700BF880200205B
:101B4000AC020020F40B00202DE9F0410B4CDFF833
:101B5000308005460E461746444502D36FF0850097
:101B600009E063690BB92434F6E73A463146284662
:101B700098470028F7D1BDE8F08100BF8802002017
:101B8000AC020020024B00221A605A60704700BF6E
:101B9000AF0C002070B50B4B0B4CA34201D30020BF
:101BA00070BD196A1E7F00220439D5B2AE4201D839
:101BB0002433F2E7013211F832508542F5D1012089
:101BC000EEE700BF88020020AC02002073B58488D5
:101BD000E4B263060D468DF8074007D02046FFF7B4
:101BE000D9FF78B10D4B93F8BA0058B10B4E20468F
:101BF00055B102F0A7FBF3691BB10DF107010820F5
:101C00009847012002B070BD02F0CEFBF369002BB3
:101C1000F7D00DF107010920F2E700BFF40B002017
:101C200008B509480378C3F341130A3350F8233049
:101C30003BB100F1080200F110019847C043C00F0A
:101C400008BD1846FCE700BFF40B002008B50346AA
:101C5000034A0448012108F0EBFA002008BD00BF48
:101C6000E2BB000000B6000004282DE9F74FDFF8C2
:101C70009C9004460F4615D001282FD1DFF89080A4
:101C800098F8B93053B300F0D3FD224D4D4522D220
:101C90002A6A4FF0000A2B7F5FFA8AF6B34204D813
:101CA0002435F3E7FFF76EFFE8E702EBC606019283
:101CB000307908F058FC8346307908F081FBD8F879
:101CC000C430019A23EA0003BBF1000FC8F8C43006
:101CD0000AF1010ADFDA002388F8B9300D4D4D45CD
:101CE00008D30B4B1B6A6BB13946204603B0BDE8E5
:101CF000F04F1847EB681BB13A46214628469847F3
:101D00002435ECE703B0BDE8F08F00BFAC02002043
:101D1000F40B00208802002038B5054608F023FCAB
:101D200010F1780F044608D038B10A4A0A482B4609
:101D3000012108F07DFA204638BD284608F040FB16
:101D4000064AD2F8C43023EA0003C2F8C4300024A3
:101D5000F1E700BFFDBB000000B60000F40B00205F
:101D600073B5044680788DF8000023796279214D9F
:101D700043EA0223ADF80230E37803F003038DF861
:101D8000043008F01DFBD5F8C430184206460CD0CC
:101D9000A478204600F02EFD2046FFF7BDFF09F095
:101DA00048F810B9962006F027FB684602F09EFA24
:101DB00010F1780F9DF8003008D038B10E4A0F4866
:101DC000012108F035FA002002B070BD184602F07B
:101DD00027FB10F1780F04D018B19DF80030084AA5
:101DE000EDE7D5F8C4300120334385F8B900C5F8D4
:101DF000C430E9E7F40B00201FBC000000B600006F
:101E000043BC00002DE9F047A84EB36904460F46D5
:101E10001546FBB9237803F01F03012B00F09E80C9
:101E2000022B00F0068133BB94F900002A68617828
:101E3000002834DA062912D008292BD0D9B9012379
:101E40001370517096F8C3305B0043F001031370B8
:101E5000022328E198470028DCD100200DE06288A9
:101E6000100A011F0129844605D9072803D8716A81
:101E7000D2B20C781CB96FF01500BDE8F0874E782F
:101E8000664503D19A4200F0098101332144F0E70D
:101E90000B7808E196F8BA301370012303E1013999
:101EA0000829E8D801A353F821F000BF471F00001C
:101EB000771E0000551F0000771E0000D11E000095
:101EC000771E0000771E0000771E0000DF1E000056
:101ED0006088C0B202F0D6F90028BED0CBE7638894
:101EE000756A63BBFFF74EFE638886F8BA30F36904
:101EF000002BB2D06E4903209847AEE76B78042BD5
:101F000010D0052B11D0022B04D16F796388BB420E
:101F100008BF01202B781D442B78002BEED1002820
:101F2000A9D0DFE795F80380F4E76388BB42F1D1DD
:101F3000B8F1000FEED12846FFF712FFEAE7FF27BE
:101F40000020B846E8E76388012B94D1002386F887
:101F5000C33082E76388012B8DD1F8E796F8BA3059
:101F6000D5F800C0002B86D0A388756A5FFA83FE7F
:101F70002A46107800283FF47EAF5178022904D118
:101F800092F80480F04500F295800244F1E78CF865
:101F900000208CF8012039605FE7154496E00B2A99
:101FA0007FF469AF00274FF0FF08C146BA4606E04C
:101FB0006B78042B0FD0052B21D02B781D442B7868
:101FC000002BF5D1F36913B1514607209847002F34
:101FD0007FF443AF4FE795F80280A38895F803900C
:101FE0009845EAD163889945E7D1B8F1070F1DD824
:101FF00006EB0803AA4683F8BB900127DDE7A38818
:102000004345DAD16388DBB24B450AD0AF78384616
:1020100000F0F0FB3846FFF77FFEB0FA80F77F094B
:10202000CBE72846FFF79CFE0746C6E7AA460027EF
:10203000C3E794F900206378002A19DA002B7FF4B3
:102040001AAFA3882D68DCB25B060AD02046FFF7E2
:10205000A1FD00283FF40FAF96F8BA30002B3FF4F3
:102060000AAF2946204602F0BFF900236B70EFE665
:10207000012B08D0032B7FF4FEAE6388002B7FF486
:10208000FAAE012103E0618800297FF4F4AE204616
:10209000FFF79CFD00287FF4E0AEECE60228296003
:1020A0007FF4F6AE4B883B60D7E600BFF40B002010
:1020B000AE0C002094F9000062780028BFF66FAFE4
:1020C000002A3FF464AF0A2A7FF4D5AE2A78002AAA
:1020D0003FF4D1AE697804297FF45FAFA9788B42D1
:1020E0007FF45BAF072B96BF9B19002393F8BB309F
:1020F0008CF80030D1E600BF13B5164C237DF3B940
:10210000E268A168019201AB802008F067F9019AAA
:10211000A3681344A360E3689B1AE3606BB962B1E0
:102120002369E2889A4208DD94F8C82093FBF2F113
:1021300002FB11330BB90123237502B010BD00233C
:102140001A4619468020237502B0BDE8104002F0FF
:1021500091B900BFF40B00207FB500230D46019319
:102160000646002862D100293AD108220B460DEB21
:10217000020108F011FA002804DA802002F0E2F8E7
:1021800004B070BD2E4C029A2260039A626004F182
:102190003802A2609DF90820BDF80E302575002A8E
:1021A000C4E903550FDB802B09D9264A26480121B3
:1021B00008F035F8802002F0C5F82846DEE713B1B4
:1021C000C4E90333DCE7FFF72BFD0028D5D0E28814
:1021D00023699A42D4BFE260E360FFF78DFFCFE747
:1021E000174CD4E90212002A01AB05DC024608F0C4
:1021F000D3F90028C4DAC0E708F0CEF9002804DAE1
:10220000802002F09FF83046B8E7019AA368134493
:10221000A360E3689B1AE360002BB1D104F138039B
:10222000A360FFF7FDFC0028D7D1A6E78028A7D13F
:10223000034BDA68002AD0D11B7D002BCDD19FE75C
:10224000F40B002064BC000000B60000044B93F8BF
:10225000C3300BB108F0AFB96FF00C00704700BF8E
:10226000F40B0020054B064A9A62064ADA62064AD7
:102270001A63064A58629A6100207047F40B0020E6
:10228000051E0000A11A0000491B0000E51A00000D
:102290002DE9F34104464B4D4B484FF0FF334FF0CF
:1022A000FF3205F0E1FA95F8B830002B40F0868057
:1022B0006B6A9BB900F0DCF8FFF7D4FF6B6A6BB96F
:1022C000424A4348012107F0AAFF4FF0FF343E483D
:1022D00005F042FB204602B0BDE8F0813D482C628B
:1022E000E8616E6A02F008FA01F09AFF041EEEDB64
:1022F00000F0C0FA041EEADB7378012B01D1F379F8
:102300003BB9354A3248012107F089FF6FF01504C7
:10231000DDE70026684685F8C830ADF802308DF854
:1023200004608DF8006001F0E1FF041ECFDB802720
:1023300068468DF8007001F0D9FF041EC7DB2749FD
:10234000304602F0C5F9041EC1DB2449384602F0CC
:10235000BFF9041EBBDB224CDFF8888044451AD34A
:10236000002002F05DF8041EB1DBD5F8C4308020F7
:1023700043F00103C5F8C43002F052F8041EA6DB96
:10238000D5F8C43043F48033C5F8C430012385F850
:10239000B83000249BE7276A0026227FF3B29A42D6
:1023A00001D82434DAE707EBC30257F83310107969
:1023B00002F08EF901360028EFD086E76FF077043F
:1023C00085E700BFF40B0020700100207DBC0000F9
:1023D00000B60000691C0000A2BC000059210000EA
:1023E00088020020AC02002030B51F4B8BB005AA3C
:1023F00003F1100518685968144603C40833AB424A
:102400002246F7D11B7823701022002101A808F082
:10241000B7FE12220021154808F0B2FE102101A8D3
:1024200008F0C4F900281BDD0828B8BF08200938C7
:1024300001AB0E491A18002012F8013F0AAC04EB58
:10244000131403F00F0328336B44013014F8144CB9
:1024500013F8143C0C7008284B7001F10201EBD109
:1024600002480BB030BD00BFDCBC0000F9200020EA
:102470002DE9F04F834B87B093F800B000AFBBF16C
:10248000000F04D080481C37BD46BDE8F08F7E4C5D
:1024900000264FF0011AB0463546B14623783BB9C5
:1024A0007A4B02349C42F3D1764A01231370E9E758
:1024B0006378052B1DD8DFE813F0AC000600E200BE
:1024C000AC001F005000402387F810B07B8287F8D3
:1024D00014B007F1100001F0E7FE40B108237B8241
:1024E00007F1100001F0E0FE08B1A7F812B07B8AF6
:1024F000E37123781C44D1E7E378002BF9D1A3786A
:1025000013B308F101085FFA88F8F2E76B689C42A0
:102510001CD024355E4B9D42F8D36D4688B06A4688
:102520005C4BC2E90534032342F8103F5A480023AC
:102530004FF4C251FEF7F0FFAD465748574A01210C
:1025400007F06DFE00209EE7554DE3E7AB68002BDA
:10255000D7D0414620469847D3E7002D57D1514A5E
:102560004D48012107F05BFEE7E72B6AA27803EBF9
:10257000C103FB601B799A4205D001312B7F994240
:10258000F3D3494AECE70123E07800F00300387503
:10259000207994F805C040EA0C20788294F9020072
:1025A0000028DAB228DA03F110004FF0010C0CFA1F
:1025B00000F010EA0A0F26D142F08000387407F1CB
:1025C0001000C7E90032B96001F06EFED7E90121C1
:1025D0003B68C0B9397CF868A17011F0800F18BF52
:1025E0001032017118BFD2B24FF0010114BF9140F7
:1025F00099404AEA010A7CE70120984010EA0A0F54
:1026000001D11046DAE70133102BBDD1B5E7002127
:10261000B4E7032E1AD1FFF7E7FEF86050B1FDF7DB
:1026200093FD024630B11028F968A8BF1022A01C03
:1026300008F098FD23786FF00201E218091B04EB03
:102640005303D14209D50136F6B252E7002EF1D13B
:10265000B9F1000F08D1154A82E702F801BC13F85E
:10266000010902F8020DECE7A4EB090389F8023036
:10267000C3F3072389F8033089F80480E3E7A14610
:1026800037E700BFF8200020EC0100208602002080
:10269000AC020020EDBC0000F8B5000088BD0000D1
:1026A000880200200DBD00004EBD00006BBD000083
:1026B00010B5094B00211A461C78844204D15C688D
:1026C00014B102EB811010BD0131042903F1400364
:1026D000F2D10020F7E700BFC00C00202DE9FF4138
:1026E00050F8283C10F82C6C103304460AD10369CA
:1026F00050F8202C98073DD5D2B9590715D500239D
:1027000044F8283C54F8283C10330BD054E90775A2
:1027100054F8148C08F08DFB002857D0324821461D
:1027200008F06BFB04B0BDE8F08143F004032361C3
:1027300003AB54F8241C304607F050FE034640B16A
:102740002A4A2B480096012107F07CFD6FF0150303
:10275000D6E7039A54F8243C134444F8243C54F834
:10276000203C9B1A44F8203C54F81C3C134444F889
:102770001C3CC7E703AB54F8241C304601F004FFAF
:1027800003460028DCD1039D54F8243C2B4444F834
:10279000243C54F8203C5B1B44F8203C54F81C3C7F
:1027A0002B4444F81C3C002DA9D0304601F0AAFF70
:1027B000B5FBF0F303FB1055002DA0D154F8203CDD
:1027C000002B9CD0304601F035FF9BE744F8180CF5
:1027D000A4F1100005F042F9002DA3D0424639467D
:1027E0003046A8479EE700BF700A0020B6BD000033
:1027F00018B6000010B5EFF31184202383F312887C
:10280000BFF36F8FFFF754FF50B14368103307D108
:102810006FF08B03436000F12C01044808F0EDFADF
:1028200084F31188BFF36F8F10BD00BF700A0020C2
:10283000F8B50E4C04252027EFF3118687F3128894
:10284000BFF36F8F6368103307D16FF08B030848B5
:10285000636004F12C0108F0D0FA86F31188BFF30D
:102860006F8F013D04F14004E6D1F8BDC00C00209B
:10287000700A002070B50A4C0A4E002531462046E9
:1028800008F09FFA0122A4F110001146013508F06A
:102890004DFA042D04F14004F0D1002070BD00BFBA
:1028A000EC0C0020DD26000008B5044807F06BF8AA
:1028B000BDE80840024807F066B800BFE0BD000070
:1028C00015BE0000014806F099B900BFE0B600004F
:1028D00038B5044618B90F4B0F485B6898476168D4
:1028E000B1F5683F10D0B1F5680F0DD00B4DA9427E
:1028F0000AD011F46861206807D00146084808F042
:102900002CF900232360656038BD142208F038FCE0
:10291000F9E700BF5C00002043BE00002C5F5CA90B
:10292000C012002008B520B34368B3F5683F10D14A
:1029300001220368BFF35B8F53E8001F002903D116
:1029400043E800200028F7D1BFF35B8F0DD10020B2
:1029500008BD094A93420AD000684FF0FF324FF099
:10296000FF3304F081FF0028F1D00448F0E7044869
:10297000EEE76FF4E040EBE72C5F5CA9E98FFFFF27
:10298000EA8FFFFF08B5D8B14368B3F5683F10D1AF
:1029900000220368BFF35B8F53E8001F012903D1B6
:1029A00043E800200028F7D1BFF35B8F0BD1002054
:1029B00008BD074A934208D0006804F0CDFFF6E74F
:1029C0006FF4E040F4E70348F2E70348F0E700BFA4
:1029D0002C5F5CA9E98FFFFFEA8FFFFF10B504466B
:1029E00018B91D4B1D485B6898476368B3F5683F8D
:1029F0002FD0B3F5680F2CD0194A934219D1236810
:102A000003BB18484FF0FF324FF0FF33214604F06C
:102A100043FE08B923681BB90F4B13485B689847FE
:102A200020681422002108F0ABFB4FF46863636058
:102A300008E0B3F5683F0DD83A2B03D040F6BA62F0
:102A40009342DED1206808F0DFF8636843F03A0370
:102A5000636010BD054AF3E75C00002043BE000040
:102A60002C5F5CA9C012002069BE00003A00003A49
:102A700008B5064906484023142208F060F8BDE86E
:102A800008400449044806F02BB900BFC00D0020DF
:102A9000C0120020E8B60000FCB600002DE9F047A7
:102AA000064600AF0C46002936D0E9468AB0D1E987
:102AB0000012A3686D462148A8464FF0050AC5E9F3
:102AC0000501C5E9072348F810AF1D484246002319
:102AD0004FF42151FEF720FDCD46D4E9031263697E
:102AE000AD461848C5F810A0C5E90501C5E907239A
:102AF0001348002342464FF42151FEF70DFDCD4609
:102B0000E369114A0E48012107F092FBA3690F4ABD
:102B10000B48012107F08CFB012E07D1EFF3058351
:102B20000B4A0748103B314607F082FB21463046EE
:102B300004F006FCBD46BDE8F08700BF96BE00006D
:102B4000E0B50000C5BE0000F4BE000003BF0000F9
:102B500031BF000030BFFFF7FDBF00BF2DE9F041DE
:102B60000B4EDFF8308006EB0807CC1B05463246DB
:102B70000949204608F0F6FAA01942460021083C0F
:102B800008F0FEFA2C6707F10800BDE8F08100BFED
:102B900000000000040000003CB60000054B5A692C
:102BA0009B689A421FBF044A536843F080535360A6
:102BB000704700BFE41E002000ED00E070B5294C16
:102BC00006460D462848294907F05CFCA36AD9044B
:102BD0003CD52548264907F055FC1720A36A1A055D
:102BE00004D52148234907F04DFC18201D4CA36A49
:102BF0009B0512D51C48204907F044FCA36BA26A30
:102C0000100409D51D4A1848012107F011FB1EB117
:102C1000A36A23F40043A3621920124CA36A590546
:102C200004D51148164907F02DFC1A20A36ADA05CD
:102C30000ED50D48134907F025FC1B20094A936A5D
:102C400043F47F43936200232B7070BD1620C5E7C9
:102C5000A36A9B04F2D504480B4907F013FC1C201F
:102C6000ECE700BF00ED00E0E0B5000044BF00006D
:102C70005ABF00006BBF00007EBF000097BF00007E
:102C8000ACBF0000C7BF0000DFBF000010B5204C84
:102C90002049214807F0F6FBA36A990136D51E4862
:102CA0001E4907F0EFFB1E20A36ADA0104D51A487B
:102CB0001B4907F0E7FB1F20154CA36A1B0304D533
:102CC0001548184907F0DEFB2120A36A590304D5F3
:102CD0001148154907F0D6FB22200D4CA36A9A0330
:102CE00004D50D48114907F0CDFB2320A36ADB036F
:102CF00004D509480E4907F0C5FB2420044A936A0D
:102D00006FEA03436FEA1343936210BD1D20CBE7C4
:102D100000ED00E00EC00000E0B5000026C000009D
:102D200039C0000053C0000071C0000096C0000010
:102D3000B0C000002DE9F843364D8046894636483C
:102D40003649174607F09EFBAB6ADE0627D53449A5
:102D5000314807F097FB1124AB6A1D0704D53149B0
:102D60002D4807F08FFB12242A4DAB6A980718D51F
:102D70002D49294807F086FB6E6BAB6A190646D5CC
:102D80002A4A25483346012107F052FAB9F1000FCB
:102D900003D0AB6A23F08003AB62132403E010245A
:102DA000DAE76FF015061B4DAB6ADA0704D5204948
:102DB000194807F067FB1424AB6A9B0604D51D492C
:102DC000154807F05FFB1524124B9A6AD50602D40A
:102DD0009A6A90070AD55B68190507D541463046BF
:102DE00000F076FA10B180F309880224094B9A6A40
:102DF000920642BF5A6A22F400525A629A6A42F01C
:102E0000FF029A6200233B702046BDE8F8836FF012
:102E10001506C2E700ED00E0E0B50000DBC00000F1
:102E2000F1C000006BBF000024C100003CC10000E5
:102E300052C10000DFBF00002DE9F041664B8AB0AF
:102E4000D3F8048000AF0446C8F30805002686F3D3
:102E50001188BFF36F8F02F07F43B3F17F4F07D12B
:102E600002F00C03082B12D15C495D4807F00AFB05
:102E7000002634460023FB71EB1E092B00F28A80EA
:102E8000DFE803F00A80837C8888888888861007BA
:102E90004CBF0C460126EDE7524951484E4D07F014
:102EA000F1FA0023FB71EB6A9A0705D54E494C48AD
:102EB00007F0E8FA002332E0EB6A002B01DA4B4915
:102EC000F5E7EB6A5B00F5D54949454807F0DAFAC2
:102ED0006B69A26943F480736B61BFF34F8FBFF3DB
:102EE0006F8F6B6932F8022C23F480736B61BFF330
:102EF0004F8FBFF36F8F4DF602739A4208D0AB6AC3
:102F0000DBB273B3FA1D01212046FFF713FF37E050
:102F10002368384A3248012107F08AF92368FA7990
:102F2000DAB907F1080504F1200C206861682A4627
:102F300003C2083464451546F7D17A6A002E45D09D
:102F4000C2F3080121B96FEA52226FEA42227A6283
:102F500007F108011846FFF7A1FD2837BD46BDE877
:102F6000F081AB6A13F47F4F04D0F91D0120FFF705
:102F700025FE05E0AB6AB3F5803F9BD3FFF786FEE5
:102F80000346CCE7FA1D0021BEE7F91D0020EEE75D
:102F900019498CE7194A1A4B18F4F87FE8468AB0A9
:102FA00018BF13466A461749C2E905134FF4007368
:102FB0001384103D144BD56142F8103F084800239C
:102FC0004FF41151FEF7A8FAC54673E722F4FF72D9
:102FD00022F00102BBE700BF00ED00E09FC100004E
:102FE000E0B50000CAC10000E1C1000002C200005B
:102FF00010C200002FC200004BC2000086C10000BA
:1030000071C100006FC2000004000001044B5A6946
:1030100042F010025A615A6922F008025A61704760
:1030200000ED00E0EFF30880EFF3098101B572468F
:10303000FFF702FF01BD00BF002080F31488BFF33B
:103040006F8F0F4880F3088803F080FA00200D4945
:103050000860BFF34F8F00F02BF8202080F3118819
:1030600009484FF40461401880F30988EFF3148095
:103070000221084380F31488BFF36F8F00F0F8F843
:103080008036002094ED00E0C02800200749D1F8E8
:1030900090200023C2F307221846934200DB7047BA
:1030A000C1F89830C1F8A0000133F6E700ED00E068
:1030B00008B572B6002383F31388FFF7E7FF144BBC
:1030C0004FF0FF32C3F88020C3F88420C3F8882073
:1030D000C3F88C20C3F89020C3F89420C3F898203C
:1030E000C3F89C20C3F88021C3F88421C3F8882149
:1030F000C3F88C21C3F89021C3F89421C3F8982118
:10310000C3F89C2162B6BFF34F8FBFF36F8F08BD2A
:1031100000E100E0084B9B6883420BD1EFF305838D
:1031200043B1064B5A6842F080525A605A6A22F400
:1031300000425A6205F0A8B9E41E002000ED00E04C
:1031400014498A684FF030001044EFF3098C80E88E
:10315000F01F202080F31288BFF36F8F0E4F4FF0C7
:1031600000664A698A603E60106F0C4C2060506FA8
:103170000023536780F3118804B5104600F00CF962
:10318000BDE8044002F1300090E8F01F8CF309889C
:1031900070470000E41E002004ED00E0DC12002077
:1031A0001EF0040F0CBFEFF30880EFF30980816974
:1031B00011F8021C0229FFD001B5724607F057F939
:1031C00001BD00BF40B2002807DB044A41090123CA
:1031D00000F01F00834042F82130704700E100E01A
:1031E00040B200280CDB4309064900F01F002033E1
:1031F0000122824041F82320BFF34F8FBFF36F8F2E
:10320000704700BF00E100E0054B420900F01F00DD
:1032100053F82220012303FA00F01040704700BF4A
:1032200000E100E040B20028A8BF00F1604001F1D9
:103230000101B8BF064B4FEA4111ACBF00F5614038
:1032400000F00F00C9B2B4BF195480F800137047E2
:1032500014ED00E0044B054A23F07F039360BFF3B5
:103260004F8FBFF36F8F70470000000000ED00E04C
:1032700008B5FFF7EFFF074AD2F8883023F4700350
:10328000C2F8883004F048F905F032FA00F05AF834
:1032900004F086F900ED00E042F8203C009B42F883
:1032A0001C3C0A49019B42F8183C029B42F8143C22
:1032B00021F001014FF0807342F8043C42F8081CF1
:1032C0000023203A02654367704700BF810D00006C
:1032D000094A0346906870B113F1160F006E05D0CD
:1032E000A0F140029A4205D8834203D2814228BF0E
:1032F0000020704700207047E41E002008B51546E6
:10330000094A0A4B9060026F1A600E4600F044F8BA
:103310002C4686F309880020054B9847204600215B
:1033200000220023034C2047E41E0020DC12002072
:1033300095A40000810D0000014B10221A61704716
:1033400000ED00E0044800232021C2180133302B97
:1033500082F80013F9D1704700E100E008B5EFF3FF
:103360000583064A103B02EBC30152F8330049685B
:103370008847BDE80840FFF711BC00BFC4B3000098
:10338000024B034A0348012100F08AB800000420E0
:10339000000000200CB70000026E054B403A1A6096
:1033A000044A4021C3E901121846012100F082B805
:1033B000E012002000000B1508B503461048D0F8B5
:1033C0009020C2F30722013A934207D90D480E4AD2
:1033D000012106F02DFF6FF0150008BDC0F89830F0
:1033E0000A6822F01F021A4342F01002C0F89C2023
:1033F0008A6842F00102C0F8A0201846EDE700BF3D
:1034000000ED00E0D0B5000086C20000F0B50E4629
:1034100085B01F4604460025B5420DDA606810B33A
:1034200097B1431E18420AD0104A11482B46012179
:1034300006F0FEFE6FF01502104605B0F0BD1F2825
:10344000F2D921680B42EFD12368019307F045F8C8
:10345000A36801A90343D0B20393FFF7ADFF10F1B6
:10346000160FE7D0421C01350C34D5E7ACC2000082
:10347000D0B50000044B0522C3F89420BFF34F8F52
:10348000BFF36F8F704700BF00ED00E0BFF35F8FA9
:10349000024B0022C3F89420704700BF00ED00E00B
:1034A00010B5034C01232278FFF7B0FF207010BD48
:1034B0000B21002008B50B4A00231278FFF7A6FF66
:1034C00010F1160F07D0084A0021D2F89030C3F34C
:1034D0000723984200DB08BDC2F89800C2F8A0108C
:1034E0000130F2E70B21002000ED00E02DE9F04370
:1034F00057485849D0F890300D68C3F307239D42D0
:1035000085B000F2A180FFF7C1FF49680022954213
:1035100001F10C011AD1504C504F25706846FEF74E
:10352000B9FADFF83C81DFF83C9106460025AE424F
:103530001FD1237846490020D1F89020C2F30722FA
:1035400093427BDBFFF796FF00204CE0C0F8982009
:1035500051F80C3C23F01F03134343F01003C0F851
:103560009C3051F8043C43F00103C0F8A030013214
:10357000CDE7009800EB05114FEA051CCB683B40F6
:10358000B3F5000F44D00AD8B3F5001F2ED0B3F521
:10359000800F34D0B3F5801F10D00135C7E7B3F1E9
:1035A000807F3ED0B3F1007FF7D150F80C308868AF
:1035B0004A6806F092FF40F4802009E050F80C3091
:1035C00088684A6806F089FF40F0885040F430204F
:1035D000039001A92078CDE90123FFF7EDFE002833
:1035E00028DA6FF0150005B0BDE8F08350F80C3014
:1035F00088684A6806F071FF40EA0800E8E750F87A
:103600000C3088684A6806F068FF40EA0900DFE786
:1036100050F80C3088684A6806F05FFF40F082700E
:10362000D6E750F80C3088684A6806F056FF40F03C
:103630008870CDE7237801332370AEE7C1F8983066
:10364000C1F8A000013377E74FF0FF30CBE700BFB0
:1036500000ED00E018B700000B2100200000F0FF93
:103660000000081100000206F0B587B007460E46BC
:1036700014460021102268461D4607F081FD0223F2
:103680008DF802302A46054B019321466846CDE964
:10369000047605F087FC07B0F0BD00BFFBA4000076
:1036A00008B5024B1B689847002008BDEC120020AB
:1036B000034B044A1860937843F0020393707047F9
:1036C000EC1200203000002008B50649064821F021
:1036D0000701C1F1005202F5802206F0A4F8002093
:1036E00008BD00BF8F3D0020F01200200E4A0123CC
:1036F000C2F840354FF080424FF08051C2F8783523
:10370000D1F83001082808D1D1F83411052904D89E
:103710000648415C09B1C2F838364FF080430122B7
:10372000C3F880250020704700E00140DEC20000A1
:1037300020B1034B800143F001031847704700BFDD
:1037400040B600000346024A0248022106F070BD5E
:10375000E8C2000008B6000070B504460D460146F8
:103760000A4806F06DFE20B92046BDE87040FFF71C
:10377000E9BF022D08D150F8083C2BB11B691BB1E1
:10378000BDE870400068184770BD00BF14130020EA
:1037900080B500AF88B06A46064BC2E90530032306
:1037A00042F8103F044800234FF4C451FDF7B4FE23
:1037B000BD4680BD0EC3000008B6000070B50646C9
:1037C0000D460146254806F021FE044620B9304644
:1037D000BDE87040FFF7DCBF0A2D3DD8DFE805F0FB
:1037E000060D181A23252C3C3C3C22001C4A1D487F
:1037F000BDE87040032106F08FBE1B4A1948032123
:1038000006F08AFE002304F8043C04F8033C09E0B7
:10381000164AECE7164A1348032106F07DFE012301
:1038200004F8043C70BD134AE8E7134A0D4803212D
:1038300006F072FE0123E8E7104A0A48032106F069
:103840006BFE14F8033C002BECD00D4A0548032115
:1038500006F062FE0023D8E70A4AC8E714130020E6
:103860002FC3000008B600003CC3000052C3000094
:1038700063C3000075C3000089C300009AC3000041
:10388000A9C30000B6C300002DE9F0410F468188AE
:103890000446C9B21D48904606F0C4FD064648B924
:1038A000A3881B481B4A022106F0C2FC6FF01200DD
:1038B000BDE8F08194F9003000686578002B13DAD8
:1038C000012D09D0AB1E012B0BD9134A10482B46F2
:1038D000012106F0ADFC04E056F8083C0BB11D6870
:1038E0006DB96FF08500E3E7092D02D0A5F10A0359
:1038F000E9E756F8083C002BF3D05D68F0E7434653
:103900003A462146AC46BDE8F0416047141300201A
:1039100008B60000C4C30000EBC300002DE9F0416D
:10392000904690F900200378002A04460D4603DBF8
:103930006FF01500BDE8F08103F01F03012BF7D1F4
:103940004378062BF4D1878846881648FFB239465B
:10395000360A06F067FD30B9134A14483B46022187
:1039600006F066FCE4E7212E04D0222E10D06FF082
:103970008500DFE70368E1885B685B6813F8092F5F
:10398000914294BF29602A60C8F800300020D1E736
:10399000E38850F80C2C9A4294BF2A602B6050F8B0
:1039A000103CF1E714130020C4C3000008B6000067
:1039B00010B50469C4E90012A36000236361064BDB
:1039C0002061596804F1140211B9C3E9002210BD45
:1039D0000A605A60FBE700BF1413002070B544680A
:1039E0000069057B3DB1407B28B9206ABDE8704085
:1039F000007906F0F3BC044A0448022106F08CFD6D
:103A00006FF00A0070BD00BF04C4000008B60000DB
:103A100030B585B00D4C01900D4D9DF820008DF80E
:103A200008008DF80910ADF80A200393AC4202D3C8
:103A3000002005B030BD236813B1019A934203D131
:103A4000D4E9013101A898470C34EFE730B6000003
:103A50003CB60000020600F07F0312D5082B05D10A
:103A6000010700F00F0306D50E48704710F0780FDD
:103A700012D100F00F034C2000EB43100A4B184406
:103A80007047082B05D1020700F00F0306D5074841
:103A9000704710F0780FF6D000207047044800EB14
:103AA00043107047681400201C1300208815002064
:103AB000881400200149024807F09FB944130020F0
:103AC000700700200146014807F025B9DC010020FD
:103AD00002480022002303F08FBF00BFDC0100205A
:103AE00013B5124800F0D0FF114B98421AD111487B
:103AF00003F04CFB0024104803F08EFB0F491048E4
:103B000000944FF0FF334FF4806204F019F90D492F
:103B10000B4807F094F90C480C4907F052F920467D
:103B200002B010BD6FF00400FAE700BFD5400000FE
:103B30000000AD0B29C600003CB700008024002027
:103B4000700700202BC4000044130020C93C000073
:103B500010B50E49BFF35B8F002351E8002F012AF7
:103B600003D141E800300028F7D1BFF35B8F0CD1BF
:103B700051F8044C1439204606F074FA783004D118
:103B80002046BDE8104006F049BA10BD3C130020A5
:103B900038B5002464F07F00C0B2FFF75BFF01344A
:103BA00006F0C6FC082CF5D10E4D0024E0B2FFF75C
:103BB00051FF036903B90561013406F0B9FC082C13
:103BC00005F14005F2D1084806F0B2FC074BD3F8E6
:103BD0007C2212B9064AC3F87C22064806F0A8FCEB
:103BE000002038BDAC190020681400201C130020F0
:103BF000AC1500208815002010B5054CFFF768FFB4
:103C000020B14168204606F0A8FFF7E710BD00BFCD
:103C10000401002007B500231348002201A903F086
:103C20003BFDD8B11149124806F095FCFFF7E4FFBF
:103C30000D480022002301A903F02EFD28B10D49F3
:103C40000B4806F088FC00200AE00198042340603D
:103C50000374FFF737FFFFF72DFFF4E7019840608B
:103C600003B05DF804FB00BF0401002036C400006F
:103C700010B6000054C400000346024A0248012165
:103C800006F0D6BA70C4000010B60000022810B5C5
:103C900011D80B4A145CFFF7BDFF80B100220274FB
:103CA0000472FFF70FFF074B93F824303BB1BDE8D8
:103CB0001040FFF7FFBEBDE81040FFF7DDBF10BDAD
:103CC00026C600001C1300202DE9F043A24CDFF8AB
:103CD0008C9285B08046FFF7FBFE074610B905B011
:103CE000BDE8F08394F825203B7C3AB9002B00F026
:103CF0009B807968994806F030FFECE7042B00F2CE
:103D00007381DFE813F09100050013013D015D01AF
:103D100018F8043C33B9BB685B7A914A9148012199
:103D200006F086FA3B7BBD68032B38D8DFE803F04A
:103D3000023E64696E698C4B002232607260D3F877
:103D400080143170D3F884147170D3F88814D3F8C8
:103D50008C0441EA00217180D3F89014D3F89404C4
:103D600041EA0021B180D3F89814D3F89C3441EA99
:103D70000323F3800823EB60306871687B4B03C337
:103D800011462B68687A984796F90030002B09DBBA
:103D9000F3889AB232B1A4F88C3201F0C3F9796891
:103DA0004846A8E70023A4F88C32F8E76B7F002B85
:103DB000F5D02B7F002BF2D000264FF0FF326C485D
:103DC0006E774FF0FF332E7706F0C9FB6B690193D6
:103DD0006B68CDE9023601A9687A00F0ABFE654A4E
:103DE0009042034604D0644A5E48012106F020FA5E
:103DF0005F4806F0B6FBD2E72B680121687A984746
:103E0000CDE7AB7A6BB9EB7F5BB959484FF0FF3226
:103E10004FF0FF3306F0A3FB01F08AF9544806F097
:103E2000A0FB2B680221E9E73B7A042BB7D8DFE837
:103E300003F059032367730000F0AEFD0546002828
:103E4000ADD100F0E9FCBFF35B8F4C49012351E891
:103E5000002F002A03D141E800300028F7D1BFF33A
:103E60005B8F9CD141F8085C41F8105CE0696361AC
:103E7000143906F07CF892E7002565F07F00C0B2A7
:103E8000FFF7E8FD037A13B1407A01F0B5FA013586
:103E9000082DF2D194F854311BB194F8550101F07A
:103EA000ABFA0025E8B2FFF7D5FD037A13B1407AEB
:103EB00001F0A2FA0135082DF4D194F874321BB147
:103EC00094F8750201F098FA002000F049FD0123F2
:103ED00084F825302368002B3FF461AF00210220D5
:103EE00098475CE7002584F8255001F0EBF9FFF7CF
:103EF0002FFE2368002B3FF452AF29460420EFE742
:103F0000002A3FF44CAF00F051FD2368002B3FF432
:103F100046AF00210520E3E72368002B3FF43FAFC5
:103F2000002A3FF43CAF00210620D9E708F1100534
:103F30004FF0FF334FF0FF32284606F010FBFFF73B
:103F400027FE284606F00DFB58F8283C002B3FF4CE
:103F500026AF00210120C3E71C130020040100202C
:103F60008BC4000010B60000007002402013002037
:103F7000541300200000AD0BB1C400003C1300201E
:103F800094F874325BB1012584F8895284F8885220
:103F9000FFF740FE58B91749174806F0DCFA58F801
:103FA000283C002B3FF4FBAE00210A2098E7134A7F
:103FB000057405738260FFF785FDFFF77BFDEEE773
:103FC0000F490D4806F0C7FA06F05EFD01F07AF9D8
:103FD00000F018FCFFF710FEFFF7DAFD06F04DFDCC
:103FE000084800F051FDDAE6074A0348012106F0CF
:103FF0001FF9D4E6D7C4000010B6000088150020D1
:10400000EBC40000D540000002C50000F7B587787A
:1040100006463846FFF71EFD3B06F47805461DD5DB
:1040200054B1032C06D0284A284800972346012182
:1040300006F008F903B0F0BDFFF7ECFD03460028D9
:10404000F8D00122AC770274032202739D60FFF75F
:1040500039FD03B0BDE8F040FFF72CBD54B1012C91
:10406000E1D1FFF7D7FD03460028E3D06C77047455
:104070000473EBE7FFF7CEFD0028DBD0B278144BDA
:1040800012F0800F02F0080111D041B1D3F8A83628
:10409000EB6001230374022303738560D7E702F00A
:1040A0000F02142101FB0233D3F80836F0E711B1F7
:1040B000D3F8A837ECE702F00F02142101FB02331A
:1040C000D3F80837E4E700BF1AC5000010B60000B7
:1040D00000700240F0B514228BB0064600210DEBB3
:1040E000020007F04DF83378013B052B21D8DFE8BB
:1040F00003F08B0314147B1603238DF81C3000246B
:10410000FFF788FD0346A0B1047400F10802DDE961
:10411000070182E80300184626E00423EDE7B7789C
:104120003846FFF797FC837A054623B1013B022B03
:1041300054D90BB0F0BD3B06F4781CD54CB1032C20
:10414000F7D0324A324800972346012106F07AF828
:10415000EFE7FFF75FFD03460028EAD00122AC77C6
:104160000274032202739D60FFF7ACFC0BB0BDE844
:10417000F040FFF79FBC54B1012CE2D1FFF74AFD9C
:1041800003460028D5D06C7704740473EBE7FFF77F
:1041900041FD04460028CCD0022301270373077495
:1041A0008560B07805F10C0106F01BFA034620B1DA
:1041B000184A1748394606F03BF8174AE968B2F83A
:1041C0008C328B4206D95B1AA2F88C3200F0AAFF1F
:1041D0002046C9E70023A2F88C32F9E730460BB03D
:1041E000BDE8F040FFF712BF03A800F079FF9DF88B
:1041F0000D30052B04D19DF80C3013F0600F98D0D2
:10420000064B079301247BE7022479E71AC50000D7
:1042100010B6000046C500001C13002088140020C2
:1042200038B5164D95F824402CBB05F1380006F042
:10423000EBFC204601F032FA22460121E8612720FA
:10424000FEF7F0FF06F019FCFFF7A2FC044610B9D8
:10425000012385F824300A4B1B680BB1FFF72AFCB9
:104260004FF08043D3F83834DB0702D50020FFF746
:104270000DFD204638BD0024FBE700BF1C130020C5
:10428000DC010020074B93F824203AB193F8253045
:10429000002B14BF00206FF0120070476FF0120067
:1042A000704700BF1C13002008B50378027903F0A3
:1042B0000F013AB989B10A490A4806F04CF94FF0A2
:1042C000FF3008BD082901D90749F5E7012A04D1C3
:1042D00083F0080040F3C000F3E743F3C000F0E7C9
:1042E00066C5000010B6000085C5000038B5124B49
:1042F00093F824300446E3B105782846FFF7AAFB7B
:1043000080B1457223798372638843602078618825
:1043100010F0080F09D14B1E0B4206D00749084880
:1043200006F019F96FF0150038BD06F055F90020B8
:10433000FAE76FF01200F7E71C130020A4C5000095
:1043400010B6000038B5154B93F8242005460AB383
:1043500093F82530F3B1FFF77DFB044610B96FF0F9
:10436000150038BD837A012B0FD007D9023B012BF2
:1043700007D96369A3610020E060F2E700F0DEFE88
:10438000F7E7284600F080FEF3E70549054806F008
:10439000E2F8E4E76FF01200E3E700BF1C1300202F
:1043A000CCC5000010B6000038B50E4B93F82420A1
:1043B000054682B193F825306BB1FFF74BFB68B12E
:1043C00015F008040AD1284600F080FE284601F0C6
:1043D0004BF8204638BD6FF01200FBE76FF0150078
:1043E000F8E700BF1C13002038B50C4B93F82420CD
:1043F00005460C4662B193F825304BB1FFF72AFB16
:1044000048B144B1284600F047FE2070002038BD76
:104410006FF01200FBE76FF01500F8E71C130020A7
:1044200070B5134E96F824300446C3B1FFF712FB63
:104430000546B8B1230705D4204600F047FE2046C4
:1044400001F012F82B7A83B901232B7296F82530EC
:104450000BB9002070BD204600F0CEFFF9E76FF0E9
:104460001200F7E76FF01500F4E76FF07700F1E75F
:104470001C1300202DE9F043DFF8F4801E4698F865
:10448000243085B0074689461546002B6DD098F834
:104490002530002B69D003060BD5FFF7DBFA044665
:1044A00038B1037A5BB9334A33483B46012105F002
:1044B000BFFE6FF01504204605B0BDE8F0834FF055
:1044C000FF334FF0FF3208F1380006F048F8A37FC1
:1044D00033B108F1380006F044F86FF00A04EAE757
:1044E000A37A05B37BB30123A3774FF0000801A99A
:1044F0003846CDE90195CDF80C8000F01BFB1F4A32
:10450000904203462DD084F81E800EB1C6F800807C
:104510001B4A1948012105F08BFE6FF0040419486D
:1045200006F01FF8C7E7E27F02B1E577002BDAD18A
:1045300000F00AFE8742D6D000F0FAFD114806F0DE
:1045400010F80024B7E7B8F80A309D42F0D262684C
:10455000B5FBF2F302FB1353002BE9D10123E37700
:10456000E6E706B135600024D9E76FF01204A2E750
:104570001C130020EEC5000010B600000000AD0BBB
:104580000DC60000541300202DE9F0411D46254BB7
:10459000174693F8242080460E46002A3FD093F811
:1045A0002530002B3BD010F0800F0ED101B967B938
:1045B0004046FFF74FFA044638B1037A43B91A4A26
:1045C0001A484346012105F033FE6FF0150013E051
:1045D0004FF0FF3316484FF0FF3205F0C0FFE3689D
:1045E0009F42B84628BF984646B93FB905B12B60EF
:1045F0000F4805F0B6FF0020BDE8F081A1694246F2
:10460000304606F0AFFDA3694344A361E368A3EB22
:104610000803E360002DEBD0C5F80080E8E76FF0F9
:104620001200E9E71C130020EEC5000010B60000E0
:104630005413002070B5224D95F824300646002B07
:104640003AD095F82530002B36D003060BD4FFF76F
:1046500001FA044638B1037A43B91A4A1A48334674
:10466000012105F0E5FD6FF0150070BD4FF0FF333F
:104670004FF0FF3205F1380005F071FFE368B3B980
:10468000012663692677A361637F83B1FFF7C2FACE
:1046900030B905F1380005F064FF6FF00B00E4E776
:1046A000067484600673FFF70DFAFFF703FA0748F4
:1046B00005F057FF0020D8E76FF01200D5E700BFE4
:1046C0001C130020EEC5000010B60000541300209B
:1046D00010B5084B93F824300C462BB1FFF7BAF90C
:1046E00028B10460002010BD6FF01200FBE76FF0EE
:1046F0001500F8E71C130020014B1860704700BF3D
:104700001C13002008B5074B93F8243023B1FFF7A2
:10471000A1F920B1406808BD6FF01200FBE76FF00F
:104720001500F8E71C1300204FF08053D3F8302118
:10473000082A06D1D3F83431052B04D8034AD05CBB
:104740007047002070470120704700BF33C600004B
:10475000064B10F0800FA3F1D80208BF134600F0FB
:104760000F00182202FB0030704700BFC41C00205D
:10477000EFF31180202383F31288BFF36F8F0A4B6E
:10478000D3F8001C032261B949F27531C3F8001C4B
:10479000C3F8142DC3F8001C80F31188BFF36F8F8A
:1047A0007047C3F8142DF7E700E00640EFF31180DF
:1047B000202383F31288BFF36F8F0A4BD3F8001CBA
:1047C00061B949F27532C3F8002CC3F8141DC3F85F
:1047D000002C80F31188BFF36F8F70470022C3F85D
:1047E000142DF6E700E006404FF08053D3F8303147
:1047F000082B02BF024B0022C3F81C2C704700BFDD
:1048000000700240024A00231360024A137070478E
:10481000A41D00201021002008B54A4B4FF400626F
:10482000C3F80024FFF780FF08B1FFF7A1FF4FF0A6
:104830008053D3F83031082B18D1EFF311802023A7
:1048400083F31288BFF36F8F3F4BD3F8001CC02255
:1048500000296ED149F27531C3F8001CC3F8142C3D
:10486000C3F8001C80F31188BFF36F8F354B012212
:10487000C3F80025D3F800241205FBD54FF40062DD
:10488000C3F800244FF08053D3F83031082B17D1F0
:10489000EFF31180202383F31288BFF36F8F2A4B2D
:1048A000D3F8001C002947D149F27532C3F8002C17
:1048B000C3F8141CC3F8002C80F31188BFF36F8F6A
:1048C000FFF732FF30B1FFF771FFFFF72DFF08B19F
:1048D000FFF74EFF4FF08053D3F83031082B194BC0
:1048E0000AD140F2E372C3F800284022C3F804283A
:1048F000BFF36F8FBFF34F8F8022C3F81C250122B7
:10490000C3F83025114B40F2FF121A60104B002102
:104910001960104B1970FFF767FF0F4B19700F4BA1
:1049200002221A70FFF700FF50B1BDE80840FFF700
:104930003DBFC3F8142C95E70022C3F8142CBBE745
:1049400008BD00BF0070024000E00640A01D00202E
:104950009C1D00200C2100200E2100201021002091
:10496000094B002210B51A70084A094B094C00285F
:1049700008BF1346C4F800332720FEF723FC0123A9
:10498000C4F8043510BD00BF0F210020FDFFDF017A
:10499000FDFFFF0100700240034B1878012894BF0F
:1049A00000200120704700BF1021002010B54FF0FB
:1049B000FF324FF0FF33154803F084F8EFF3118115
:1049C000202383F31288BFF36F8F114B1B7803F002
:1049D000FF0483B10F4BD3F8002412F400720AD104
:1049E0000120C3F82C05D3F82C05D3F8000480056A
:1049F00002D5C3F82C25002481F31188BFF36F8FF3
:104A0000024803F02BF8204610BD00BFAC01002087
:104A10000F2100200070024010B5EFF31184202315
:104A200083F31288BFF36F8F144B1B7803F0FF00E2
:104A3000CBB1134AD2F82C35EBB10023C2F82C3598
:104A40004FF08053D3F83031082B0CD10D4BD3F8F5
:104A5000001CC02261B949F27531C3F8001CC3F8CB
:104A6000142CC3F8001C84F31188BFF36F8F10BDA2
:104A7000C3F8142CF7E71846F5E700BF0F21002014
:104A80000070024000E00640F8B51C4B1C7894BB57
:104A90001B4A106001221A7040F2FF17264664F08C
:104AA0007F0514F0080FEDB214BF394640212846A7
:104AB00005F092FD2846FFF74BFE0134092C867560
:104AC00006730661EBD1002440F2FF17254614F06F
:104AD000080FE6B214BF39464021304605F07CFD90
:104AE0003046FFF735FE0134092C857505730561E5
:104AF000EDD10448F8BD0448FCE700BF10210020B8
:104B0000A41D00200000AD0B0500AD0B084B10F0FC
:104B1000800F00F00F0114BFD3F81025D3F814252F
:104B200001238B40134214BF01200020704700BFB7
:104B3000007002402DE9F8430246EFF3118720236D
:104B400083F31288BFF36F8F030703D1184B1B78D1
:104B5000834229D1174B184E1C683568104605F062
:104B600033FDE443A4B24FF001092C4309FA00F8E5
:104B700014EA08041AD11046FFF7EAFD80F80C90F9
:104B8000034607C91C6183E807009C750B4B0C4862
:104B900045EA080580223560C3F8042187F31188AF
:104BA000BFF36F8FBDE8F8830648F7E70648F5E7DF
:104BB0000E210020A01D00209C1D002000E100E02F
:104BC0000000AD0B0A00AD0B0B00AD0B10F0080F91
:104BD000074B06D0D3F8C00410F4803F18BF002064
:104BE000704700F00F0000F5947053F820007047F4
:104BF000007002402DE9F74FAB4BAC4ED3F8542177
:104C0000DAB10022C3F85421D3F80413890214D571
:104C10008DF80420D3F82025ADF80620D3F8C03451
:104C2000002B336814BF4FF001224FF480721343FE
:104C300033609F4B01A81B6898479B4BD3F860419A
:104C400034B10022C3F86021D3F86C44C3F86C443B
:104C5000D3F828214AB10022C3F82821954B1878AF
:104C600005F0B2FC012383401C43DFF84C82934FD4
:104C700098F8005098F9009015F0080143D1B9F167
:104C8000000F05F00F032EDA8D4A52F8230020B3EF
:104C900042F823101422534303F1804303F51C33DD
:104CA000D3F80836874A117803F001034B4013709C
:104CB000FFF79AFD844802F0D1FE2846FFF748FD31
:104CC000837D032B37D1284605F07EFC012303FAB0
:104CD00000F03B6823EA00033B60DFF8D4A1012524
:104CE0004FF006095DE0794A52F823000028F4D01D
:104CF00042F823101422534303F1804303F51C337D
:104D0000D3F80837CEE7B9F1000F674B09DBD3F8CA
:104D10005021002AE1D00022C3F85021D3F8A8374F
:104D2000C0E7D3F82C21002AD7D00022C3F82C21C9
:104D3000D3F8A836B6E7037BDBB9284605F044FC78
:104D4000012303FA00F03B68B9F1000F23EA0003E6
:104D50003B6001DA882DC0D106238DF80430002392
:104D60008DF80730524B8DF806501B6801A8984704
:104D7000B3E7002DB1D14C4B0122DA64ADE794FAD0
:104D8000A4F03268B0FA80F005FA00F31A430F2855
:104D9000326024EA03043A6840F39C80134200F036
:104DA000A980002CEBD1404BD3F800215AB1C3F8B5
:104DB0000041474B1C703F4B1C70012301933C4B3F
:104DC00001A81B689847384BD3F85821002A2ED0E9
:104DD0000022C3F85821D3F80044C3F80044E30587
:104DE00008D53B4B01221A7002230193304B01A8D6
:104DF0001B689847A50508D5354B00221A70032378
:104E000001932B4B01A81B68984760050FD5304BC9
:104E10001A7862B100221A70234B0122C3F80825C8
:104E20009A6504230193224B01A81B6898471E4BE7
:104E3000D3F85C3103B3244B9B681BB998F800305E
:104E4000590619D0184B0022C3F85C21D3F88034DE
:104E5000184A23F07F0313703B6823F001133B6073
:104E6000336823F4803343F0010333600523019357
:104E70000F4B01A81B6898473A6833681A4200F044
:104E8000EB8011480022002302F01CFE002840F0B5
:104E9000E380054BD3F82C35002B7BD00A4803B0B8
:104EA000BDE8F04F02F0DABD00700240A01D002006
:104EB000A41D00200E2100200D2100209C1D00209B
:104EC000087102400C210020AC010020307102402A
:104ED0000F21002013407FF464AF60F07F018DF854
:104EE00004908DF806108DF80730DAF8003001A82C
:104EF000984756E7A0F110018DF804908DF8061040
:104F00008DF80750F1E749F080052846FFF720FCAF
:104F10004368B0F814A001689A4528BF9A4601F08A
:104F20006043B3F1005F044604D05448524606F093
:104F300019F952492268636852442260A268A3EBBF
:104F40000A03D20768B2636053D5BAF1000F52D199
:104F5000002323734FE011464FF0000A604545D10E
:104F6000003B18BF0123002A42D0504540D90123FD
:104F700003FA09F32BEA03033B6006238DF80430A0
:104F80003F4B8DF8065002221B68A2758DF8072052
:104F900001A89847D7F800B033681BEA03093FF42B
:104FA0007DAF19F0012314BF93FAA3F999FAA9F977
:104FB000B9FA89F9B9F10F0FA5D9A9F11005EDB228
:104FC0002846FFF7C5FB04462846FFF7FFFD636848
:104FD000B4F814C022689842BDD81B1A00EB020E28
:104FE00011466360C4F800E08246B7E70023BAE7E1
:104FF00068B2002BACD04FF08053D3F83031082B7F
:1050000002BF204B8222C3F81C2C336888F8005062
:10501000012202FA09F923EA09033360236915F032
:10502000080F53442361174B19D1002805F00F05D1
:105030004FF0140000FB0530A9BF0A3503EB8503D0
:10504000C0F80017C0F804A7AFBF43F82520C0F888
:105050000016C0F804A65A6003B0BDE8F08F00281F
:10506000B5BFC3F8A016C3F8A017C3F8A4A6C3F829
:10507000A4A7B4BF5A629A64EEE700BFAC1B00203D
:10508000A41D002000700240024B40F48070C3F861
:105090001805704700700240030713D400F00F0397
:1050A00010F0800F084A0BBF03F5887303F5847373
:1050B00002EB830252F8230008BF5068003818BF83
:1050C000012070470020704700700240034BC3F876
:1050D0000C0540F48070C3F80C0570470070024066
:1050E0000023036043600E4BD3F880240270D3F892
:1050F00084244270D3F88824D3F88C1442EA012225
:105100004280D3F89024D3F8941442EA012282809A
:10511000D3F89824D3F89C3442EA0323C380704721
:1051200000700240014B0122DA64704700700240B7
:10513000014B01221A65704700700240014B0122A9
:105140005A65704700700240014B1878704700BFE5
:105150000E21002010B50246EFF31184202383F3C3
:105160001288BFF36F8F05F02FFA0B49012303FA62
:1051700000F00B6823EA00030B6012F0080101BF86
:1051800002F00F02054B02F5947243F8221084F3EB
:105190001188BFF36F8F10BDA01D0020007002406A
:1051A000F7B50146EFF31185202383F31288BFF38F
:1051B0006F8FFFF7CDFA0646084605F005FA012283
:1051C00011F0800F02FA00F22D4818D1036832EA7C
:1051D00003040AD00846FFF7BDFF0323B37585F328
:1051E0001188BFF36F8F03B0F0BD2649347323EAF3
:1051F000020303600B6823EA02030B60EDE70B0771
:1052000015D48029204B2FD001F00F0404F2DA349A
:105210006400C3F80048D3F80448D3F80478E4B233
:1052200044F002043C43C3F80448D3F80438154F53
:1052300004683B6864EA030C1CEA020FCFD01343F6
:105240003B60002333730323B3758DF807300F4B96
:105250008DF8061024EA0204062204601B688DF80B
:10526000042001A89847BAE740F2B474C3F8004894
:10527000D3F80448D3F80478E4B244F00404D1E746
:105280009C1D0020A01D002000700240A41D0020D5
:1052900038B50446094D4FF0FF324FF0FF33284632
:1052A00002F010FC2046FFF77BFF284602F0D6FBF9
:1052B000034B8022C3F8042138BD00BFAC0100209D
:1052C00000E100E0F8B54FF0FF324FF0FF332B481C
:1052D00002F0F8FB2A4B8022C3F884212720FDF737
:1052E00093FF98B1274E284B34681B68240C240484
:1052F0001C43012764BB254D40F2FF133360272078
:10530000C5F80445FDF76CFFC5F80043204A137843
:105310008BB11E4B0021C3F808110121C3F80026F0
:10532000C3F804165960D3F808110029FBD00021F6
:10533000C3F808111170154B0022C3F80025FFF7C0
:1053400053FA0E4802F08AFB124B01221A70F8BD84
:1053500094FAA4F5B5FA85F50F2D2846C6BFA5F138
:105360001000C0B240F08000030701D4FFF718FF1F
:1053700007FA05F524EA0504BCE700BFAC010020EC
:1053800000E100E0A01D00209C1D002000700240F4
:105390000C2100201021002010B504464FF0FF32F0
:1053A0004FF0FF33114802F08DFB2046FFF7F8FE67
:1053B00004F00F02012393400D4A14F0800F14BF34
:1053C000D2F81015D2F814156FEA030315BF0B407D
:1053D0000B40C2F81035C2F81435044802F03EFB09
:1053E000044B8022C3F8042110BD00BFAC01002093
:1053F0000070024000E100E070B50446FFF786FB54
:1054000068B904F00F02012514F0800F144B05FA5F
:1054100002F205D0D3F810150A43C3F8102570BD69
:10542000D3F814150A43C3F81425631E062BF6D8C7
:10543000EFF31186202383F31288BFF36F8F20468A
:10544000FFF788FE204605F0BFF8064A136885403E
:1054500023EA0503136086F31188BFF36F8FDEE73D
:10546000007002409C1D0020030610B5044605D4C0
:10547000FFF712FE10B12046FFF76CFE014BC3F898
:10548000184510BD00700240084B70B5C31A0D4698
:1054900007499B10044659430648402205F0C0F8CE
:1054A0002B4601462046BDE870401847BC1D002031
:1054B000B76DDBB604B3000073B50C4C0C4A402347
:1054C000041B00930D460B460A49A410614306468F
:1054D000094805F0D0F8011E05DA30462B4602B027
:1054E000BDE87040184702B070BD00BFBC1D002071
:1054F000DFA60000B76DDBB604B3000010B5EFF314
:105500001184202383F31288BFF36F8F074A136837
:1055100023F00201DB07116002D4012005F01FFA1D
:1055200084F31188BFF36F8F10BD00BF0C1E0020E5
:10553000002270B5012104461046FDF773FE0F48A6
:1055400001F08EF90E4B984215D101F099F92669B8
:105550000C49304604F0F8FC00280BDB01253564CB
:105560002469084904F11C0004F0EEFC002801DB6A
:10557000E564002070BD6FF00400FBE78156000079
:105580000000AD0B40B700001FB500220123CDE99C
:105590000223094ACDF800D06B46CDF804D005F0BF
:1055A00097F8002805DB4FF480420023684602F09C
:1055B00089FA05B05DF804FBFDA6000030B4104B7D
:1055C0000C2202FB003301460020D3E90E529863FF
:1055D000EFF31180202484F31288BFF36F8F1C6CCB
:1055E00004F0C00444F002041C6480F31188BFF38B
:1055F0006F8F1DB12B46034830BC184730BC704735
:10560000BC1D002004B3000010B4EFF3118220236E
:1056100083F31288BFF36F8F1748016841F00204CB
:105620000460C80707D482F31188BFF36F8F01208D
:1056300010BC01F03DB94FF08041D1F80C04D1F815
:105640000C14C907EFD5EFF3118083F31288BFF371
:105650006F8F0A490B6C03F0C00343F002030B6425
:1056600080F31188BFF36F8F82F31188BFF36F8FC0
:10567000002010BCFFF7A2BF0C1E0020BC1D0020A4
:1056800010B1012804D07047034B1B6C5B0701D19C
:10569000FFF794BF704700BFBC1D0020024AC3B291
:1056A0001C2003FB00207047BC1D00202DE9F041A9
:1056B0003849BFF35B8F0746012251E8003F41E8BC
:1056C00000200028F9D1BFF35B8F33B9324933484A
:1056D0004B60CB608A6004F04AFC7B1E012B2BD808
:1056E000012F07D14FF08043D3F81C3403F003039C
:1056F000012B21D005F09DFB0546F8B9284B1B78FE
:10570000E3B14FF080430222C3F808230646DFF8D6
:1057100094804FF08044D4F81824D4F81834D2037D
:1057200015D503F00303012B01D0012F0FD155B381
:1057300086F31188BFF36F8FBDE8F081EFF3118618
:10574000202383F31288BFF36F8F0125DFE7ADB10C
:10575000304604F0B3FED4F81835002BDBD1D4F872
:105760000421002AD7D0C4F80431D4F8043101232D
:10577000C4F81835C8F88031A360CCE70021212097
:1057800005F00FFCE7E74FF080430222C3F8042343
:10579000D2E700BFB81D0020A81D0020D81D0020A2
:1057A0001521002000E100E008B5074805F07FF969
:1057B00038B10648FDF77CFF0448FBF7DBFA002010
:1057C00008BD6FF01200FBE764B30000D157000082
:1057D0000A2838B5074D044604D1AB680D215B6833
:1057E00028469847AB6803485B68E1B29847204673
:1057F00038BD00BF64B30000F0B516464268107BA8
:1058000001F01F0444EA4014106987B0002872D0E8
:10581000B6F5001F02F1100506D12146284605F015
:105820001EF9002007B0F0BD01A80027B6F5800FD3
:105830000197476039D1B3F1007F14BF05230423DA
:105840008DF804300023CDE904030393936823FA11
:1058500001F111F001010DF103073ED1B6F1A07F76
:105860003BD104F01F03620903F5E07328D0012A3D
:1058700047D1254A52F82330DB072ED43A46214639
:10588000284601F0FFFA214B98421CD0029703AA48
:105890002146284601F0B6F91D4B98422ED101222F
:1058A0002146284601F046FBBBE7B3F1C06F05D0A7
:1058B000B3F1007F14BF01230223C1E70323BFE735
:1058C0004FF0A042D6E73946284601F02BFB104B9B
:1058D0009842DBD06FF00B00A4E73A4621462846F9
:1058E00001F0D0FA0A4B9842D1D19DF80310284616
:1058F00001F010FBCBE76FF0850093E76FF0150028
:1059000090E751F82330FFDE000300500400AD0B98
:105910000000AD0B420970B5034602D0012A17D032
:1059200070BD0D4E326951680029F9D003F01F0394
:1059300001250C689D400029F2D08A682A4002D0D7
:105940004B68304698472CB1236821461C46F2E745
:10595000024EE7E72346F8E744B3000024B3000013
:1059600038B545682B69B3B11035284601F0C8FA3F
:10597000044680B90146284601F09EFA084B984239
:105980000BD108492246284601F076FA2246052125
:105990000620FDF747FC002038BD6FF00400FBE750
:1059A0000000AD0B155900002DE9F043466840F2A8
:1059B0000635D006337B87B002EA050554BFC2F333
:1059C0004010032001F01F07B5F5837F144647EA16
:1059D00043178DF8030044D00FD8062D18D007D8F0
:1059E000B5B1022D3FD06FF0150007B0BDE8F083D0
:1059F000B5F5807FF7D101250AE040F202229542F9
:105A000033D0B5F5407F32D0B5F5007FEBD102251C
:105A100022032ED5726801238B40C2F80835326903
:105A200092BB07F01F037F092BD0012F79D13F4A8A
:105A300002EB830284F48033D2F80017C3F30043EF
:105A4000C4F3404444EA430421F4E16144EA80049D
:105A500021F0070144EA05230B43C2F80037002078
:105A6000C3E70725D4E70425D2E70525D0E70325BA
:105A7000CEE7630341BF012372688B40C2F80C3547
:105A8000CDE74FF0A042D3E710360DF102023946C0
:105A9000304601F0F7F914F4403F80460CD1394606
:105AA000304604F0DAFF224B9845D8D19DF8021019
:105AB000304601F02FFAD2E701AB4FF0000903AAFC
:105AC00039463046CDE90439CDE90199CDF80C903D
:105AD00001F098F8164B984285D114F4003315D094
